S00E000053616D706C652E73726563B4
S11300000C942A000C948A000C9434000C94340050
S11300100C9434000C9434000C9434000C9434008C
S11300200C9434000C9434000C9434000C9434007C
S11300300C9434000C9434000C9434000C9434006C
S11300400C9434000C9434000C9434000C9434005C
S11300500C94340011241FBECFE5D8E0DEBFCDBF21
S11300600E9444000C94B5000C940000882359F0BD
S11300702FE33DE093E0215030409040E1F700C091
S113008000008150A9F70895D59AD49AD39ABB9ABF
S1130090BA9AB99A14BA11BA84E082BB80E48BBFCD
S11300A082E085BF78941BBA18BAD7E0C5E0DD9A20
S11300B0C19AC398DC98C298DB9883B3837011F417
S11300C08C2F01C08D2F0E943600C29A82E00E94BC
S11300D03600C298C198C39A81E00E943600DD9828
S11300E0DB9A83B38C7011F48C2F01C08D2F0E9486
S11300F03600DC9A82E00E943600DB98DC98DD9AB8
S113010081E00E943600DD9AC19AC398DC98C298B7
S1130110DB98CDCF1F920F920FB60F9211242F931D
S11301203F934F935F936F937F938F939F93AF937B
S1130130BF93EF93FF93DD9AC39AC198DC98C2985A
S1130140DB9883E00E943600FF91EF91BF91AF915D
S11301509F918F917F916F915F914F913F912F91DB
S11101600F900FBE0F901F901895F894FFCFCC
S9030000FC
